:1000000043EF02F038EF06F004EF08F08B900300A6
:10001000A1AAD0B61200FBD70CEF08F018EF00F041
:10003000F26AFC6A08EC03F00400D8EC05F028EC46
:1000400002F01DEC03F05EEC04F0F6D7080E2C6E07
:1000500025500DE1080E245C0AE224C02CF0325039
:1000600002E1010E03D0320402E1020E326E2CC016
:1000700009F42C50245E000E255A240E116E040E35
:10008000126E30A21ED00DD014C0F6FF1DD87AEC2F
:1000900007F0070EF76403D00800F55001D018D818
:1000A0001DD82C50F1E1120014C0F6FF0DD87AECE7
:1000B00007F0070EF76403D00800F55001D008D808
:1000C0000DD82C50F1E1120015C0F7FFF86A1200AC
:1000D000F6CFE1FFF7CFE2FFE7501200DF6E114AE3
:1000E000122A144A152A2C0612000138E832030B92
:1000F00018E01200010E336E040E406E040C010E67
:10010000336E440E146E8DEF06F02CD8476E47C048
:1001100014F08DEF06F026D8D96EDA6A03C0DFFF3F
:100120001200025002E1F3EF00F0010A02E13DEF9C
:1001300007F0020A02E13DEF07F0060ADBE0030ADE
:1001400002E1B7EF00F0010AD8B412000F0AD7E0BD
:10015000010A02E1ABEF01F0030AD7E0010ADBE09C
:10016000070A1200010E336E0550430F1200800E75
:10017000011830E01200010E336EA40E87EC06F079
:10018000120E09D003502DE1010E336E380E87ECAC
:1001900006F0256A290E246E24D0010E336E03501A
:1001A000010F456E45C0F6FF080EF76E0900F5CF4A
:1001B00014F0156E14C0F6FF15C0F7FFF86A070EAD
:1001C000F76403D00800F55002D068EC00F0246E0C
:1001D000256A07D00450010ACEE0030AD3E0010AE1
:1001E000DCE030821200246B256B22D0010E336ECE
:1001F00030B0248324D0010E336E21D085EC07F07B
:10020000456A040E466E4526000E4622F3504526EA
:10021000F45046227FEC07F04524116EF45046203E
:10022000126E7AEC07F0DFA40AD0010E246F07D01B
:1002300001501F0BDBE0010ADEE0030ADFE03304BC
:10024000D8A41200240E146E040E156E3092020E05
:10025000246E020C400E466401D0466E486A0DD0F2
:1002600045504824D96EDA6A6C0E4824E16EE26A81
:10027000040EE222DFCFE7FF482A4650485CF0E355
:1002800046C011F4400E0401101710BD03D0476A98
:10029000472A01D0476A473A47464746040110516A
:1002A0004718BF0B4718106F1087108F12002A6A6B
:1002B0000CBF120046500D5D02E20DC446F02A6AE2
:1002C0000BD02C0E2A24D96EDA6A040EDA2245509D
:1002D0002A2433EC06F02A2A46502A5CF2E3400E28
:1002E0000D6F0C170CBD03D0476A472A01D0476A2F
:1002F000473A4746474604010C514718BF0B471879
:100300000C6F0C870C8F12000F0EC16E938A81AA9E
:1003100003D0070EC16E02D018EC00F0060E16D8FE
:100320000D0EF5180FE10900600EF5180BE1F66AE5
:10033000100EF76E0900F52803E10900F52802E028
:1003400000EF08F018EC00F000EF00F0F66E100E71
:10035000F76E0900100C010E336E16D82B6A2B5065
:10036000430FD96EDA6ADF6A2B2A2B50F8E003C0FC
:1003700044F04450EBEC02F0035003E1050E406EF4
:10038000050C060E406E060C716A726A736A746A16
:10039000756A766A776A1200040E401807E103C096
:1003A0006EFF6E50050ED8B4030E406E3404D8A410
:1003B000120026EC00F0020E321802E108D8040CFC
:1003C0000401480E08BD080E086F088F1200040EC5
:1003D0000401086F088F040C030E406E6B6A686A94
:1003E0007B0E696E6E6AC4EC01F0160E706E6D8C39
:1003F00003D0689619EC03F068B6FBD76D9C6D9836
:10040000040E096E000EDDEC07F0010E316E306A4D
:10041000446A000EEBEF02F0300EF86EA351F76E57
:10042000A2C0F7FF376A0FD0A651E1083724D96E72
:10043000DA6ADF50F56E0C00C40EA66EB50E88ECBD
:1004400002F00900372A0001A651375CEDE31200E3
:100450002606D8A0270626502710D8A412004E0E34
:10046000276E266A060E406002D08B80060C8BB089
:1004700003D0456A452A01D0456A8B504518FE0BCA
:1004800045188B6E120001EE00F0400EEE6AE80691
:10049000FDE100EE60F0820EEE6AE806FDE100EE9E
:1004A00001F0440EEE6AE806FDE1000EF86E000170
:1004B00084EF01F0366A10D0A2513624A96EA651FD
:1004C000E1083624D96EDA6ADF50A86E040EA66EF3
:1004D000B50E88EC02F0362A0001A651365CECE33A
:1004E00012000401086B326A00AF02D0006B316A5F
:1004F00004AF03D0046B010E316E346A336A246A90
:10050000256A6D9875EC00F002EC00F08EEF07F0B4
:10051000456EF29E1DEC03F0B50E451804E0030E87
:10052000D36E0300FED7550EA76EAA0EA76EA68245
:10053000A6B2FED7A69412002A6A1E0E716E400E55
:1005400004010D6F2C0E0E6F040E0F6F080E0C6F52
:100550000C8F6C0E126F040E136F400E106F400C58
:100560002F0402E1F3EC02F06D6A150E6F6E696AFA
:100570006D86ECEC01F0010E406E2F6A120069CF1F
:100580002DF0040E696E68986D82A19AA08A06EC1F
:1005900000F0A09A2D50691212003F6A04D83E6AFA
:1005A000010E3D6E010C0D680E680F681068120098
:1005B00005D019EC03F04506D8A046064550461074
:1005C000F8E1120014EC03F06D92699401D0689484
:1005D00068A41200FCD7456E4504D8A412009CEC18
:1005E00002F0CDEF02F06D926D6A46684568D8EC76
:1005F00002F0406A12002F0401E112006DA6B0EC77
:1006000002F01200F3EC02F0FF0000F000F0120024
:10061000CDEC02F08B9094900EEF03F06DB6F3ECFE
:1006200002F02F6AFBEF02F0030E466E456AD8EF28
:0C06300002F00400120012001200120080
:1008000000B6046134034D006900630072006F009C
:1008100063006800690070002000540065006300F8
:1008200068006E006F006C006F00670079002000A8
:1008300049006E0063002E000902290001010080BA
:100840003209040000020300000009211101000127
:10085000221D000705810340000107050103400038
:10086000012603480049004400200055005300427F
:1008700000200042006F006F0074006C006F006188
:10088000006400650072000600FF0901A101190162
:100890002940150026FF007508954081001901299F
:1008A000409100C01201000200000008D8043C0082
:0B08B000010101020001040309040023
:1008BC00060E4018D8B46DB212003F5001E04CD176
:1008CC0004010CBF1200A10E456E400E466E57EC93
:1008DC0001F0010E3F6E3C6A3C50600FD96EDA6A33
:1008EC00DF6A3C2A3F0E3C64F7D73F0C040110BF73
:1008FC001200020E0001606F3A0E616F010E626F02
:10090C00636F646B100E656F666B676B686B700E54
:10091C00696F6A6B6B6B030E6C6F6D6B6E6B300E6D
:10092C006F6F706B0E0E716F726B736B746B040E5A
:10093C00756F766B776B200E786F796B080E7A6F0C
:10094C007B6B7C6B7D6B7E69020E7E6F7F6B806B2D
:10095C00F00E816F826B836B010E846F856B866BDF
:10096C008769A50E996F600E456E400E466E2AEC97
:10097C0001F03F6A1200010E3D6EA251FAE13D6A90
:10098C00F8D7296A400E286E19EC03F0F86A28C0D3
:10099C004AF029C04BF0D8904B324A32D8904B32A7
:1009AC004A324A50F76E2840E842C00BF66E940E5D
:1009BC00A66EB50E88EC02F0D8EC05F0284A292A70
:1009CC00020E295CE1E33C6A3CC0A9FFA868040E56
:1009DC00A66ED8EC05F0B50E88EC02F03C3EF4D7D0
:1009EC00200EF86EF76A39EC07F088EC02F0C1D7EC
:1009FC00300EA41905E13D50BCE10CEC02F0B9D766
:100A0C00F00EA41903E15AEC02F0B3D70D280EE155
:100A1C000E280CE10F280AE1102808E1A2C00DF005
:100A2C00A3C00EF0A4C00FF0A5C010F00D50A21979
:100A3C00A0E10E50A3199DE10F50A4199AE110509A
:100A4C00A51997E13C6A14D0A651E1083C24D96E53
:100A5C00DA6A000E3E2499D83E2A0D2A000E0E2288
:100A6C000F221022200E3E1802E192EC06F03C2AD6
:100A7C000001A6513C5C01E37CD7E6D792EC06F072
:100A8C00D3EC02F076D7070E606FA2C061F0A3C062
:100A9C0062F0A4C063F0A5C064F0A6C065F0A2C06B
:100AAC001DF0A3C01EF0A4C01FF03C6A1BD0F00EBA
:100ABC00A41909E1A2513C24A96EA66AA6806CD89F
:100ACC00A8CFDFFF0ED01DC0F6FF1EC0F7FF1FC062
:100ADC00F8FF62D80800F5CFDFFF1D2A000E1E229A
:100AEC001F223C2AA6513C5CE2E3040110BF120019
:100AFC003AD7EAEC06F03DD70C0E606F010E626F30
:100B0C00020E616F160EA6EC01F0F5CF63F00A0031
:100B1C00F5CF64F0060E656F100E666F676B686B31
:100B2C00600E6A6F0D0E696F400E6B6F000E6C6B72
:100B3C006D6B6E6B6F69706971697269736B7469D7
:100B4C007569766B7769786979697A697B697C698B
:100B5C00CCD702EC03F00DD70001A151020A01E140
:100B6C00C5D6010A01E107D7070A01E10AD7010A34
:100B7C0001E13ED7030A82E0010A85E00F0AE9E0B1
:100B8C00010AB7E0050AB8E0F4D6E16EE26A010E9C
:100B9C00E222DFCFE7FF1200A651A0083C24D96E59
:100BAC00DA6A1200FBEC02F0405001E1120068B46A
:100BBC00E2EC02F06DB2120068B0ECEC01F068B837
:100BCC00BFEC02F0030E406001D0030C356A68A63E
:100BDC0012006C506CCF48F07C0E48162AE16CB2B7
:100BEC0003D0226A040E02D0040E226E236E689685
:100BFC0022C0D9FF23C0DAFFDF30E8320F0B0D0A19
:100C0C0020E12E6A23D8DECF48F0DDCF49F048C072
:100C1C00D9FF49C0DAFF2E50010F1FD817D8DE2A92
:100C2C00000EDD222E2A070E2E64ECD771EC02F09A
:100C3C0008D0040E6C1804E16896CCEC01F001D0DD
:100C4C006896352A030E3564C2D7030C20EE02F0E9
:100C5C002250D9262350DA221200E16EE26ADFCF4D
:100C6C00E7FF120001501F0BE80601E012000550CF
:100C7C0001E01200060E021814E01AD0020E336EB8
:100C8C004A0E3FD8256A090E0AD0020E336E440470
:100C9C0002E1870E36D844040AE1256A1D0E246E43
:100CAC0006D00450210AEAE0030AEFE0010A308280
:100CBC000138E832030BE80614E01200020E336E22
:100CCC00420E146E24D0020E336E04C042F0020C9D
:100CDC00020E336E410EF5D7020E336E03C041F097
:100CEC00020C0250010AD8B41200030AE7E0010A10
:100CFC00EFE00A0AD8B41200030AE5E0010AECE0BE
:100D0C001200146E1450D8A4080E156E1200156A39
:100D1C003092010E246E010C3E500D5C466E000E9E
:100D2C000E58476E000E0F58486E000E1058496E44
:100D3C004650176E47C018F048C019F0F86A18C032
:100D4C00F7FF17C0F6FF396AF6501F0B386EE00E2E
:100D5C00F6163A6A385011E13E500CE0000E392478
:100D6C00D96EDA6A010EDA22DF50F56E0D00392ADF
:100D7C003E0606D0F5680D0003D0F5680D00380668
:100D8C003A2A1F0E3A64E6D70A001BD888EC02F008
:100D9C003A6A13D0000E466E010E476E3950462645
:100DAC00000E47223A504624D96E000E4720DA6EC8
:100DBC00000E3A24CBEC05F03A2A3E503A5CEAE3BA
:100DCC001200A40EA66EB50C1A6A100E1B6E1C6ACD
:100DDC003B6A1AC0F6FF1BC0F7FF1CC0F8FF3CD8DB
:100DEC000800F5CFDFFF1A2A000E1B221C223B2A1B
:100DFC003F0E3B64EED70D0E0101066F600E076FC0
:100E0C00F86A100EF76E2FD888EC02F03F0E1A6EAF
:100E1C00100E1B6E1C6A3F0E3B6E1CC0F8FF1BC0F5
:100E2C00F7FF1AC0F6FF18D8DF50F56E0C003BC068
:100E3C0046F01F0E461606E119EC03F0E7EC06F03F
:100E4C0088EC02F01A06000E1B5A1C5A0A003B5082
:100E5C0001E112003B06E1D7000E3B24D96EDA6AA1
:100E6C00010EDA221200F66A940EA66EB50C03047B
:100E7C000BE101501F0B08E1010E336E030E02183B
:100E8C0002E1308001D030900350D8A41200015000
:100E9C001F0B020AD8A4120005500F0BD8B4120075
:100EAC002ED8456A040E466E4526000E4622F35097
:100EBC004526F45046221DD84524116EF450462088
:100ECC00126E030E021805E10FD8040EDF6E0CD85B
:100EDC001CD005AE04D008D8400EDF6E400C04D8F0
:100EEC00080EDF6E01D811D011C0D9FF12C0DAFF85
:100EFC001200010E05AE000E040DF3501200010E8F
:100F0C00336E05500F0B080D1200000EDB8E000C1B
:100F1C00335010E1E7EC01F0096E310405E1010EEC
:100F2C00DDEC07F0316A1200000EDDEC07F0010E6B
:100F3C00316E010C01AE1BD0010E346E2450075CD7
:100F4C002550085804E207C024F008C025F026EC10
:100F5C0000F0480E096E010EDDEC07F0000EDDEC22
:100F6C0007F0240E04010A6F040E0B6F1CD0020E46
:100F7C00346E040E096E0750081002E1480E096E1B
:100F8C00310405E1010EDDEC07F0316A05D0000EED
:100F9C00DDEC07F0010E316E07500810D8A41200DA
:100FAC000401096B00D0480E086F088F480C456E81
:100FBC00080E0A6E1C0E0B6E040E0C6E455006E1EC
:100FCC00140E0B6E040E0C6E206A02D0040E206EF2
:100FDC00216E0BD809C0DEFF0AC0DEFF0BC0DEFF9E
:100FEC000CC0DEFF02D8DF8E120020C0D9FF21C05A
:040FFC00DAFF120006
:021006000D607B
:020000040020DA
:08000000FFFFFFFFFFFFFFFF00
:020000040030CA
:0E000000240E3F1EFF8181FF0FC00FE00F4056
:00000001FF
